{
  "_format": "hh-sol-artifact-1",
  "contractName": "KYC",
  "sourceName": "contracts/KYC.sol",
  "abi": [
    {
      "inputs": [],
      "stateMutability": "nonpayable",
      "type": "constructor"
    },
    {
      "anonymous": false,
      "inputs": [
        {
          "indexed": true,
          "internalType": "address",
          "name": "newAdmin",
          "type": "address"
        }
      ],
      "name": "AdminSet",
      "type": "event"
    },
    {
      "anonymous": false,
      "inputs": [
        {
          "indexed": true,
          "internalType": "address",
          "name": "user",
          "type": "address"
        },
        {
          "indexed": false,
          "internalType": "bool",
          "name": "consentGiven",
          "type": "bool"
        }
      ],
      "name": "ConsentUpdated",
      "type": "event"
    },
    {
      "anonymous": false,
      "inputs": [
        {
          "indexed": true,
          "internalType": "address",
          "name": "user",
          "type": "address"
        }
      ],
      "name": "KYCApproved",
      "type": "event"
    },
    {
      "anonymous": false,
      "inputs": [
        {
          "indexed": true,
          "internalType": "address",
          "name": "user",
          "type": "address"
        }
      ],
      "name": "KYCRejected",
      "type": "event"
    },
    {
      "anonymous": false,
      "inputs": [
        {
          "indexed": true,
          "internalType": "address",
          "name": "user",
          "type": "address"
        },
        {
          "indexed": false,
          "internalType": "string",
          "name": "documentHash",
          "type": "string"
        }
      ],
      "name": "KYCSubmitted",
      "type": "event"
    },
    {
      "inputs": [],
      "name": "admin",
      "outputs": [
        {
          "internalType": "address",
          "name": "",
          "type": "address"
        }
      ],
      "stateMutability": "view",
      "type": "function"
    },
    {
      "inputs": [
        {
          "internalType": "address",
          "name": "_user",
          "type": "address"
        }
      ],
      "name": "approveKYC",
      "outputs": [],
      "stateMutability": "nonpayable",
      "type": "function"
    },
    {
      "inputs": [
        {
          "internalType": "address",
          "name": "_user",
          "type": "address"
        }
      ],
      "name": "getKYC",
      "outputs": [
        {
          "internalType": "string",
          "name": "documentHash",
          "type": "string"
        },
        {
          "internalType": "enum KYC.KYCStatus",
          "name": "status",
          "type": "uint8"
        },
        {
          "internalType": "bool",
          "name": "consentGiven",
          "type": "bool"
        }
      ],
      "stateMutability": "view",
      "type": "function"
    },
    {
      "inputs": [
        {
          "internalType": "address",
          "name": "",
          "type": "address"
        }
      ],
      "name": "kycRecords",
      "outputs": [
        {
          "internalType": "address",
          "name": "user",
          "type": "address"
        },
        {
          "internalType": "string",
          "name": "documentHash",
          "type": "string"
        },
        {
          "internalType": "enum KYC.KYCStatus",
          "name": "status",
          "type": "uint8"
        },
        {
          "internalType": "bool",
          "name": "consentGiven",
          "type": "bool"
        }
      ],
      "stateMutability": "view",
      "type": "function"
    },
    {
      "inputs": [
        {
          "internalType": "address",
          "name": "_user",
          "type": "address"
        }
      ],
      "name": "rejectKYC",
      "outputs": [],
      "stateMutability": "nonpayable",
      "type": "function"
    },
    {
      "inputs": [
        {
          "internalType": "string",
          "name": "_documentHash",
          "type": "string"
        }
      ],
      "name": "submitKYC",
      "outputs": [],
      "stateMutability": "nonpayable",
      "type": "function"
    },
    {
      "inputs": [
        {
          "internalType": "bool",
          "name": "_consentGiven",
          "type": "bool"
        }
      ],
      "name": "updateConsent",
      "outputs": [],
      "stateMutability": "nonpayable",
      "type": "function"
    }
  ],
  "bytecode": "0x608060405234801561001057600080fd5b50336000806101000a81548173ffffffffffffffffffffffffffffffffffffffff021916908373ffffffffffffffffffffffffffffffffffffffff16021790555060008054906101000a900473ffffffffffffffffffffffffffffffffffffffff1673ffffffffffffffffffffffffffffffffffffffff167f8fe72c3e0020beb3234e76ae6676fa576fbfcae600af1c4fea44784cf0db329c60405160405180910390a26117f1806100c36000396000f3fe608060405234801561001057600080fd5b506004361061007d5760003560e01c80637eb606e81161005b5780637eb606e8146100ec578063c42e58881461011f578063cc90dcd31461013b578063f851a440146101575761007d565b80630e27324d14610082578063453ae3cf1461009e5780634d1a687d146100ba575b600080fd5b61009c60048036038101906100979190610e54565b610175565b005b6100b860048036038101906100b39190610fc7565b61043a565b005b6100d460048036038101906100cf9190610e54565b61060b565b6040516100e393929190611121565b60405180910390f35b61010660048036038101906101019190610e54565b61088a565b604051610116949392919061116e565b60405180910390f35b61013960048036038101906101349190610e54565b61097c565b005b610155600480360381019061015091906111e6565b610c42565b005b61015f610dbe565b60405161016c9190611213565b60405180910390f35b60008054906101000a900473ffffffffffffffffffffffffffffffffffffffff1673ffffffffffffffffffffffffffffffffffffffff163373ffffffffffffffffffffffffffffffffffffffff1614610203576040517f08c379a00000000000000000000000000000000000000000000000000000000081526004016101fa906112a0565b60405180910390fd5b600073ffffffffffffffffffffffffffffffffffffffff16600160008373ffffffffffffffffffffffffffffffffffffffff1673ffffffffffffffffffffffffffffffffffffffff16815260200190815260200160002060000160009054906101000a900473ffffffffffffffffffffffffffffffffffffffff1673ffffffffffffffffffffffffffffffffffffffff16036102d4576040517f08c379a00000000000000000000000000000000000000000000000000000000081526004016102cb9061130c565b60405180910390fd5b600060028111156102e8576102e761108f565b5b600160008373ffffffffffffffffffffffffffffffffffffffff1673ffffffffffffffffffffffffffffffffffffffff16815260200190815260200160002060020160009054906101000a900460ff16600281111561034a5761034961108f565b5b1461038a576040517f08c379a000000000000000000000000000000000000000000000000000000000815260040161038190611378565b60405180910390fd5b60018060008373ffffffffffffffffffffffffffffffffffffffff1673ffffffffffffffffffffffffffffffffffffffff16815260200190815260200160002060020160006101000a81548160ff021916908360028111156103ef576103ee61108f565b5b02179055508073ffffffffffffffffffffffffffffffffffffffff167f333bb19eeef0621b32888db778cc7a481a89fc1d59adb2cecb59b40ef048941e60405160405180910390a250565b600081511161047e576040517f08c379a0000000000000000000000000000000000000000000000000000000008152600401610475906113e4565b60405180910390fd5b60405180608001604052803373ffffffffffffffffffffffffffffffffffffffff168152602001828152602001600060028111156104bf576104be61108f565b5b815260200160001515815250600160003373ffffffffffffffffffffffffffffffffffffffff1673ffffffffffffffffffffffffffffffffffffffff16815260200190815260200160002060008201518160000160006101000a81548173ffffffffffffffffffffffffffffffffffffffff021916908373ffffffffffffffffffffffffffffffffffffffff1602179055506020820151816001019081610566919061161a565b5060408201518160020160006101000a81548160ff021916908360028111156105925761059161108f565b5b021790555060608201518160020160016101000a81548160ff0219169083151502179055509050503373ffffffffffffffffffffffffffffffffffffffff167fe3f81b273b142548431346476607dda7126d68317c9b8a1bbee298bc274dc5b08260405161060091906116ec565b60405180910390a250565b6060600080600073ffffffffffffffffffffffffffffffffffffffff16600160008673ffffffffffffffffffffffffffffffffffffffff1673ffffffffffffffffffffffffffffffffffffffff16815260200190815260200160002060000160009054906101000a900473ffffffffffffffffffffffffffffffffffffffff1673ffffffffffffffffffffffffffffffffffffffff16036106e1576040517f08c379a00000000000000000000000000000000000000000000000000000000081526004016106d890611780565b60405180910390fd5b6000600160008673ffffffffffffffffffffffffffffffffffffffff1673ffffffffffffffffffffffffffffffffffffffff1681526020019081526020016000206040518060800160405290816000820160009054906101000a900473ffffffffffffffffffffffffffffffffffffffff1673ffffffffffffffffffffffffffffffffffffffff1673ffffffffffffffffffffffffffffffffffffffff16815260200160018201805461079390611433565b80601f01602080910402602001604051908101604052809291908181526020018280546107bf90611433565b801561080c5780601f106107e15761010080835404028352916020019161080c565b820191906000526020600020905b8154815290600101906020018083116107ef57829003601f168201915b505050505081526020016002820160009054906101000a900460ff16600281111561083a5761083961108f565b5b600281111561084c5761084b61108f565b5b81526020016002820160019054906101000a900460ff1615151515815250509050806020015181604001518260600151935093509350509193909250565b60016020528060005260406000206000915090508060000160009054906101000a900473ffffffffffffffffffffffffffffffffffffffff16908060010180546108d390611433565b80601f01602080910402602001604051908101604052809291908181526020018280546108ff90611433565b801561094c5780601f106109215761010080835404028352916020019161094c565b820191906000526020600020905b81548152906001019060200180831161092f57829003601f168201915b5050505050908060020160009054906101000a900460ff16908060020160019054906101000a900460ff16905084565b60008054906101000a900473ffffffffffffffffffffffffffffffffffffffff1673ffffffffffffffffffffffffffffffffffffffff163373ffffffffffffffffffffffffffffffffffffffff1614610a0a576040517f08c379a0000000000000000000000000000000000000000000000000000000008152600401610a01906112a0565b60405180910390fd5b600073ffffffffffffffffffffffffffffffffffffffff16600160008373ffffffffffffffffffffffffffffffffffffffff1673ffffffffffffffffffffffffffffffffffffffff16815260200190815260200160002060000160009054906101000a900473ffffffffffffffffffffffffffffffffffffffff1673ffffffffffffffffffffffffffffffffffffffff1603610adb576040517f08c379a0000000000000000000000000000000000000000000000000000000008152600401610ad29061130c565b60405180910390fd5b60006002811115610aef57610aee61108f565b5b600160008373ffffffffffffffffffffffffffffffffffffffff1673ffffffffffffffffffffffffffffffffffffffff16815260200190815260200160002060020160009054906101000a900460ff166002811115610b5157610b5061108f565b5b14610b91576040517f08c379a0000000000000000000000000000000000000000000000000000000008152600401610b8890611378565b60405180910390fd5b6002600160008373ffffffffffffffffffffffffffffffffffffffff1673ffffffffffffffffffffffffffffffffffffffff16815260200190815260200160002060020160006101000a81548160ff02191690836002811115610bf757610bf661108f565b5b02179055508073ffffffffffffffffffffffffffffffffffffffff167fa34e10975b6442017fb6ca6ba35e6d671924c59f52737e20ef2362a5ca2c275160405160405180910390a250565b600073ffffffffffffffffffffffffffffffffffffffff16600160003373ffffffffffffffffffffffffffffffffffffffff1673ffffffffffffffffffffffffffffffffffffffff16815260200190815260200160002060000160009054906101000a900473ffffffffffffffffffffffffffffffffffffffff1673ffffffffffffffffffffffffffffffffffffffff1603610d13576040517f08c379a0000000000000000000000000000000000000000000000000000000008152600401610d0a9061130c565b60405180910390fd5b80600160003373ffffffffffffffffffffffffffffffffffffffff1673ffffffffffffffffffffffffffffffffffffffff16815260200190815260200160002060020160016101000a81548160ff0219169083151502179055503373ffffffffffffffffffffffffffffffffffffffff167f7bdbd5ff3d003672492455cc5133da0a6ac7f911054f30d5f423443f90418c7182604051610db391906117a0565b60405180910390a250565b60008054906101000a900473ffffffffffffffffffffffffffffffffffffffff1681565b6000604051905090565b600080fd5b600080fd5b600073ffffffffffffffffffffffffffffffffffffffff82169050919050565b6000610e2182610df6565b9050919050565b610e3181610e16565b8114610e3c57600080fd5b50565b600081359050610e4e81610e28565b92915050565b600060208284031215610e6a57610e69610dec565b5b6000610e7884828501610e3f565b91505092915050565b600080fd5b600080fd5b6000601f19601f8301169050919050565b7f4e487b7100000000000000000000000000000000000000000000000000000000600052604160045260246000fd5b610ed482610e8b565b810181811067ffffffffffffffff82111715610ef357610ef2610e9c565b5b80604052505050565b6000610f06610de2565b9050610f128282610ecb565b919050565b600067ffffffffffffffff821115610f3257610f31610e9c565b5b610f3b82610e8b565b9050602081019050919050565b82818337600083830152505050565b6000610f6a610f6584610f17565b610efc565b905082815260208101848484011115610f8657610f85610e86565b5b610f91848285610f48565b509392505050565b600082601f830112610fae57610fad610e81565b5b8135610fbe848260208601610f57565b91505092915050565b600060208284031215610fdd57610fdc610dec565b5b600082013567ffffffffffffffff811115610ffb57610ffa610df1565b5b61100784828501610f99565b91505092915050565b600081519050919050565b600082825260208201905092915050565b60005b8381101561104a57808201518184015260208101905061102f565b60008484015250505050565b600061106182611010565b61106b818561101b565b935061107b81856020860161102c565b61108481610e8b565b840191505092915050565b7f4e487b7100000000000000000000000000000000000000000000000000000000600052602160045260246000fd5b600381106110cf576110ce61108f565b5b50565b60008190506110e0826110be565b919050565b60006110f0826110d2565b9050919050565b611100816110e5565b82525050565b60008115159050919050565b61111b81611106565b82525050565b6000606082019050818103600083015261113b8186611056565b905061114a60208301856110f7565b6111576040830184611112565b949350505050565b61116881610e16565b82525050565b6000608082019050611183600083018761115f565b81810360208301526111958186611056565b90506111a460408301856110f7565b6111b16060830184611112565b95945050505050565b6111c381611106565b81146111ce57600080fd5b50565b6000813590506111e0816111ba565b92915050565b6000602082840312156111fc576111fb610dec565b5b600061120a848285016111d1565b91505092915050565b6000602082019050611228600083018461115f565b92915050565b7f4f6e6c792061646d696e2063616e20706572666f726d2074686973206163746960008201527f6f6e000000000000000000000000000000000000000000000000000000000000602082015250565b600061128a60228361101b565b91506112958261122e565b604082019050919050565b600060208201905081810360008301526112b98161127d565b9050919050565b7f4b5943207265636f7264206e6f7420666f756e64000000000000000000000000600082015250565b60006112f660148361101b565b9150611301826112c0565b602082019050919050565b60006020820190508181036000830152611325816112e9565b9050919050565b7f4b594320616c72656164792070726f6365737365640000000000000000000000600082015250565b600061136260158361101b565b915061136d8261132c565b602082019050919050565b6000602082019050818103600083015261139181611355565b9050919050565b7f446f63756d656e7420686173682063616e6e6f7420626520656d707479000000600082015250565b60006113ce601d8361101b565b91506113d982611398565b602082019050919050565b600060208201905081810360008301526113fd816113c1565b9050919050565b7f4e487b7100000000000000000000000000000000000000000000000000000000600052602260045260246000fd5b6000600282049050600182168061144b57607f821691505b60208210810361145e5761145d611404565b5b50919050565b60008190508160005260206000209050919050565b60006020601f8301049050919050565b600082821b905092915050565b6000600883026114c67fffffffffffffffffffffffffffffffffffffffffffffffffffffffffffffffff82611489565b6114d08683611489565b95508019841693508086168417925050509392505050565b6000819050919050565b6000819050919050565b600061151761151261150d846114e8565b6114f2565b6114e8565b9050919050565b6000819050919050565b611531836114fc565b61154561153d8261151e565b848454611496565b825550505050565b600090565b61155a61154d565b611565818484611528565b505050565b5b818110156115895761157e600082611552565b60018101905061156b565b5050565b601f8211156115ce5761159f81611464565b6115a884611479565b810160208510156115b7578190505b6115cb6115c385611479565b83018261156a565b50505b505050565b600082821c905092915050565b60006115f1600019846008026115d3565b1980831691505092915050565b600061160a83836115e0565b9150826002028217905092915050565b61162382611010565b67ffffffffffffffff81111561163c5761163b610e9c565b5b6116468254611433565b61165182828561158d565b600060209050601f8311600181146116845760008415611672578287015190505b61167c85826115fe565b8655506116e4565b601f19841661169286611464565b60005b828110156116ba57848901518255600182019150602085019450602081019050611695565b868310156116d757848901516116d3601f8916826115e0565b8355505b6001600288020188555050505b505050505050565b600060208201905081810360008301526117068184611056565b905092915050565b7f4e6f204b5943207265636f726420666f756e6420666f7220746869732061646460008201527f7265737300000000000000000000000000000000000000000000000000000000602082015250565b600061176a60248361101b565b91506117758261170e565b604082019050919050565b600060208201905081810360008301526117998161175d565b9050919050565b60006020820190506117b56000830184611112565b9291505056fea26469706673582212207fb5b29338a3b39058b65817f416bbad98c38799689ddf49e434ca37e7a840e064736f6c63430008140033",
  "linkReferences": {},
  "deployedLinkReferences": {}
}