{
  "_format": "hh-sol-artifact-1",
  "contractName": "KYC",
  "sourceName": "contracts/KYC.sol",
  "abi": [
    {
      "inputs": [],
      "stateMutability": "nonpayable",
      "type": "constructor"
    },
    {
      "anonymous": false,
      "inputs": [
        {
          "indexed": true,
          "internalType": "address",
          "name": "user",
          "type": "address"
        },
        {
          "indexed": false,
          "internalType": "bool",
          "name": "consentGiven",
          "type": "bool"
        }
      ],
      "name": "ConsentUpdated",
      "type": "event"
    },
    {
      "anonymous": false,
      "inputs": [
        {
          "indexed": true,
          "internalType": "address",
          "name": "user",
          "type": "address"
        }
      ],
      "name": "KYCApproved",
      "type": "event"
    },
    {
      "anonymous": false,
      "inputs": [
        {
          "indexed": true,
          "internalType": "address",
          "name": "user",
          "type": "address"
        }
      ],
      "name": "KYCRejected",
      "type": "event"
    },
    {
      "anonymous": false,
      "inputs": [
        {
          "indexed": true,
          "internalType": "address",
          "name": "user",
          "type": "address"
        },
        {
          "indexed": false,
          "internalType": "string",
          "name": "documentHash",
          "type": "string"
        }
      ],
      "name": "KYCSubmitted",
      "type": "event"
    },
    {
      "inputs": [],
      "name": "admin",
      "outputs": [
        {
          "internalType": "address",
          "name": "",
          "type": "address"
        }
      ],
      "stateMutability": "view",
      "type": "function"
    },
    {
      "inputs": [
        {
          "internalType": "address",
          "name": "_user",
          "type": "address"
        }
      ],
      "name": "approveKYC",
      "outputs": [],
      "stateMutability": "nonpayable",
      "type": "function"
    },
    {
      "inputs": [
        {
          "internalType": "address",
          "name": "_user",
          "type": "address"
        }
      ],
      "name": "getKYC",
      "outputs": [
        {
          "internalType": "string",
          "name": "documentHash",
          "type": "string"
        },
        {
          "internalType": "enum KYC.KYCStatus",
          "name": "status",
          "type": "uint8"
        },
        {
          "internalType": "bool",
          "name": "consentGiven",
          "type": "bool"
        }
      ],
      "stateMutability": "view",
      "type": "function"
    },
    {
      "inputs": [
        {
          "internalType": "address",
          "name": "",
          "type": "address"
        }
      ],
      "name": "kycRecords",
      "outputs": [
        {
          "internalType": "address",
          "name": "user",
          "type": "address"
        },
        {
          "internalType": "string",
          "name": "documentHash",
          "type": "string"
        },
        {
          "internalType": "enum KYC.KYCStatus",
          "name": "status",
          "type": "uint8"
        },
        {
          "internalType": "bool",
          "name": "consentGiven",
          "type": "bool"
        }
      ],
      "stateMutability": "view",
      "type": "function"
    },
    {
      "inputs": [
        {
          "internalType": "address",
          "name": "_user",
          "type": "address"
        }
      ],
      "name": "rejectKYC",
      "outputs": [],
      "stateMutability": "nonpayable",
      "type": "function"
    },
    {
      "inputs": [
        {
          "internalType": "address",
          "name": "_user",
          "type": "address"
        },
        {
          "internalType": "string",
          "name": "_documentHash",
          "type": "string"
        }
      ],
      "name": "storeKycData",
      "outputs": [],
      "stateMutability": "nonpayable",
      "type": "function"
    },
    {
      "inputs": [
        {
          "internalType": "string",
          "name": "_documentHash",
          "type": "string"
        }
      ],
      "name": "submitKYC",
      "outputs": [],
      "stateMutability": "nonpayable",
      "type": "function"
    },
    {
      "inputs": [
        {
          "internalType": "bool",
          "name": "_consentGiven",
          "type": "bool"
        }
      ],
      "name": "updateConsent",
      "outputs": [],
      "stateMutability": "nonpayable",
      "type": "function"
    }
  ],
  "bytecode": "0x608060405234801561001057600080fd5b50336000806101000a81548173ffffffffffffffffffffffffffffffffffffffff021916908373ffffffffffffffffffffffffffffffffffffffff160217905550611808806100606000396000f3fe608060405234801561001057600080fd5b50600436106100885760003560e01c8063c42e58881161005b578063c42e58881461012a578063cc90dcd314610146578063f6a8d70914610162578063f851a4401461017e57610088565b80630e27324d1461008d578063453ae3cf146100a95780634d1a687d146100c55780637eb606e8146100f7575b600080fd5b6100a760048036038101906100a29190610ee7565b61019c565b005b6100c360048036038101906100be919061105a565b6103ab565b005b6100df60048036038101906100da9190610ee7565b610538565b6040516100ee939291906111b4565b60405180910390f35b610111600480360381019061010c9190610ee7565b6107b7565b6040516101219493929190611201565b60405180910390f35b610144600480360381019061013f9190610ee7565b6108a9565b005b610160600480360381019061015b9190611279565b610ab9565b005b61017c600480360381019061017791906112a6565b610c35565b005b610186610e51565b6040516101939190611302565b60405180910390f35b60008054906101000a900473ffffffffffffffffffffffffffffffffffffffff1673ffffffffffffffffffffffffffffffffffffffff163373ffffffffffffffffffffffffffffffffffffffff161461022a576040517f08c379a00000000000000000000000000000000000000000000000000000000081526004016102219061138f565b60405180910390fd5b600073ffffffffffffffffffffffffffffffffffffffff16600160008373ffffffffffffffffffffffffffffffffffffffff1673ffffffffffffffffffffffffffffffffffffffff16815260200190815260200160002060000160009054906101000a900473ffffffffffffffffffffffffffffffffffffffff1673ffffffffffffffffffffffffffffffffffffffff16036102fb576040517f08c379a00000000000000000000000000000000000000000000000000000000081526004016102f2906113fb565b60405180910390fd5b60018060008373ffffffffffffffffffffffffffffffffffffffff1673ffffffffffffffffffffffffffffffffffffffff16815260200190815260200160002060020160006101000a81548160ff021916908360028111156103605761035f611122565b5b02179055508073ffffffffffffffffffffffffffffffffffffffff167f333bb19eeef0621b32888db778cc7a481a89fc1d59adb2cecb59b40ef048941e60405160405180910390a250565b60405180608001604052803373ffffffffffffffffffffffffffffffffffffffff168152602001828152602001600060028111156103ec576103eb611122565b5b815260200160001515815250600160003373ffffffffffffffffffffffffffffffffffffffff1673ffffffffffffffffffffffffffffffffffffffff16815260200190815260200160002060008201518160000160006101000a81548173ffffffffffffffffffffffffffffffffffffffff021916908373ffffffffffffffffffffffffffffffffffffffff16021790555060208201518160010190816104939190611631565b5060408201518160020160006101000a81548160ff021916908360028111156104bf576104be611122565b5b021790555060608201518160020160016101000a81548160ff0219169083151502179055509050503373ffffffffffffffffffffffffffffffffffffffff167fe3f81b273b142548431346476607dda7126d68317c9b8a1bbee298bc274dc5b08260405161052d9190611703565b60405180910390a250565b6060600080600073ffffffffffffffffffffffffffffffffffffffff16600160008673ffffffffffffffffffffffffffffffffffffffff1673ffffffffffffffffffffffffffffffffffffffff16815260200190815260200160002060000160009054906101000a900473ffffffffffffffffffffffffffffffffffffffff1673ffffffffffffffffffffffffffffffffffffffff160361060e576040517f08c379a000000000000000000000000000000000000000000000000000000000815260040161060590611797565b60405180910390fd5b6000600160008673ffffffffffffffffffffffffffffffffffffffff1673ffffffffffffffffffffffffffffffffffffffff1681526020019081526020016000206040518060800160405290816000820160009054906101000a900473ffffffffffffffffffffffffffffffffffffffff1673ffffffffffffffffffffffffffffffffffffffff1673ffffffffffffffffffffffffffffffffffffffff1681526020016001820180546106c09061144a565b80601f01602080910402602001604051908101604052809291908181526020018280546106ec9061144a565b80156107395780601f1061070e57610100808354040283529160200191610739565b820191906000526020600020905b81548152906001019060200180831161071c57829003601f168201915b505050505081526020016002820160009054906101000a900460ff16600281111561076757610766611122565b5b600281111561077957610778611122565b5b81526020016002820160019054906101000a900460ff1615151515815250509050806020015181604001518260600151935093509350509193909250565b60016020528060005260406000206000915090508060000160009054906101000a900473ffffffffffffffffffffffffffffffffffffffff16908060010180546108009061144a565b80601f016020809104026020016040519081016040528092919081815260200182805461082c9061144a565b80156108795780601f1061084e57610100808354040283529160200191610879565b820191906000526020600020905b81548152906001019060200180831161085c57829003601f168201915b5050505050908060020160009054906101000a900460ff16908060020160019054906101000a900460ff16905084565b60008054906101000a900473ffffffffffffffffffffffffffffffffffffffff1673ffffffffffffffffffffffffffffffffffffffff163373ffffffffffffffffffffffffffffffffffffffff1614610937576040517f08c379a000000000000000000000000000000000000000000000000000000000815260040161092e9061138f565b60405180910390fd5b600073ffffffffffffffffffffffffffffffffffffffff16600160008373ffffffffffffffffffffffffffffffffffffffff1673ffffffffffffffffffffffffffffffffffffffff16815260200190815260200160002060000160009054906101000a900473ffffffffffffffffffffffffffffffffffffffff1673ffffffffffffffffffffffffffffffffffffffff1603610a08576040517f08c379a00000000000000000000000000000000000000000000000000000000081526004016109ff906113fb565b60405180910390fd5b6002600160008373ffffffffffffffffffffffffffffffffffffffff1673ffffffffffffffffffffffffffffffffffffffff16815260200190815260200160002060020160006101000a81548160ff02191690836002811115610a6e57610a6d611122565b5b02179055508073ffffffffffffffffffffffffffffffffffffffff167fa34e10975b6442017fb6ca6ba35e6d671924c59f52737e20ef2362a5ca2c275160405160405180910390a250565b600073ffffffffffffffffffffffffffffffffffffffff16600160003373ffffffffffffffffffffffffffffffffffffffff1673ffffffffffffffffffffffffffffffffffffffff16815260200190815260200160002060000160009054906101000a900473ffffffffffffffffffffffffffffffffffffffff1673ffffffffffffffffffffffffffffffffffffffff1603610b8a576040517f08c379a0000000000000000000000000000000000000000000000000000000008152600401610b81906113fb565b60405180910390fd5b80600160003373ffffffffffffffffffffffffffffffffffffffff1673ffffffffffffffffffffffffffffffffffffffff16815260200190815260200160002060020160016101000a81548160ff0219169083151502179055503373ffffffffffffffffffffffffffffffffffffffff167f7bdbd5ff3d003672492455cc5133da0a6ac7f911054f30d5f423443f90418c7182604051610c2a91906117b7565b60405180910390a250565b60008054906101000a900473ffffffffffffffffffffffffffffffffffffffff1673ffffffffffffffffffffffffffffffffffffffff163373ffffffffffffffffffffffffffffffffffffffff1614610cc3576040517f08c379a0000000000000000000000000000000000000000000000000000000008152600401610cba9061138f565b60405180910390fd5b60405180608001604052808373ffffffffffffffffffffffffffffffffffffffff16815260200182815260200160006002811115610d0457610d03611122565b5b815260200160001515815250600160008473ffffffffffffffffffffffffffffffffffffffff1673ffffffffffffffffffffffffffffffffffffffff16815260200190815260200160002060008201518160000160006101000a81548173ffffffffffffffffffffffffffffffffffffffff021916908373ffffffffffffffffffffffffffffffffffffffff1602179055506020820151816001019081610dab9190611631565b5060408201518160020160006101000a81548160ff02191690836002811115610dd757610dd6611122565b5b021790555060608201518160020160016101000a81548160ff0219169083151502179055509050508173ffffffffffffffffffffffffffffffffffffffff167fe3f81b273b142548431346476607dda7126d68317c9b8a1bbee298bc274dc5b082604051610e459190611703565b60405180910390a25050565b60008054906101000a900473ffffffffffffffffffffffffffffffffffffffff1681565b6000604051905090565b600080fd5b600080fd5b600073ffffffffffffffffffffffffffffffffffffffff82169050919050565b6000610eb482610e89565b9050919050565b610ec481610ea9565b8114610ecf57600080fd5b50565b600081359050610ee181610ebb565b92915050565b600060208284031215610efd57610efc610e7f565b5b6000610f0b84828501610ed2565b91505092915050565b600080fd5b600080fd5b6000601f19601f8301169050919050565b7f4e487b7100000000000000000000000000000000000000000000000000000000600052604160045260246000fd5b610f6782610f1e565b810181811067ffffffffffffffff82111715610f8657610f85610f2f565b5b80604052505050565b6000610f99610e75565b9050610fa58282610f5e565b919050565b600067ffffffffffffffff821115610fc557610fc4610f2f565b5b610fce82610f1e565b9050602081019050919050565b82818337600083830152505050565b6000610ffd610ff884610faa565b610f8f565b90508281526020810184848401111561101957611018610f19565b5b611024848285610fdb565b509392505050565b600082601f83011261104157611040610f14565b5b8135611051848260208601610fea565b91505092915050565b6000602082840312156110705761106f610e7f565b5b600082013567ffffffffffffffff81111561108e5761108d610e84565b5b61109a8482850161102c565b91505092915050565b600081519050919050565b600082825260208201905092915050565b60005b838110156110dd5780820151818401526020810190506110c2565b60008484015250505050565b60006110f4826110a3565b6110fe81856110ae565b935061110e8185602086016110bf565b61111781610f1e565b840191505092915050565b7f4e487b7100000000000000000000000000000000000000000000000000000000600052602160045260246000fd5b6003811061116257611161611122565b5b50565b600081905061117382611151565b919050565b600061118382611165565b9050919050565b61119381611178565b82525050565b60008115159050919050565b6111ae81611199565b82525050565b600060608201905081810360008301526111ce81866110e9565b90506111dd602083018561118a565b6111ea60408301846111a5565b949350505050565b6111fb81610ea9565b82525050565b600060808201905061121660008301876111f2565b818103602083015261122881866110e9565b9050611237604083018561118a565b61124460608301846111a5565b95945050505050565b61125681611199565b811461126157600080fd5b50565b6000813590506112738161124d565b92915050565b60006020828403121561128f5761128e610e7f565b5b600061129d84828501611264565b91505092915050565b600080604083850312156112bd576112bc610e7f565b5b60006112cb85828601610ed2565b925050602083013567ffffffffffffffff8111156112ec576112eb610e84565b5b6112f88582860161102c565b9150509250929050565b600060208201905061131760008301846111f2565b92915050565b7f4f6e6c792061646d696e2063616e20706572666f726d2074686973206163746960008201527f6f6e000000000000000000000000000000000000000000000000000000000000602082015250565b60006113796022836110ae565b91506113848261131d565b604082019050919050565b600060208201905081810360008301526113a88161136c565b9050919050565b7f4b5943207265636f7264206e6f7420666f756e64000000000000000000000000600082015250565b60006113e56014836110ae565b91506113f0826113af565b602082019050919050565b60006020820190508181036000830152611414816113d8565b9050919050565b7f4e487b7100000000000000000000000000000000000000000000000000000000600052602260045260246000fd5b6000600282049050600182168061146257607f821691505b6020821081036114755761147461141b565b5b50919050565b60008190508160005260206000209050919050565b60006020601f8301049050919050565b600082821b905092915050565b6000600883026114dd7fffffffffffffffffffffffffffffffffffffffffffffffffffffffffffffffff826114a0565b6114e786836114a0565b95508019841693508086168417925050509392505050565b6000819050919050565b6000819050919050565b600061152e611529611524846114ff565b611509565b6114ff565b9050919050565b6000819050919050565b61154883611513565b61155c61155482611535565b8484546114ad565b825550505050565b600090565b611571611564565b61157c81848461153f565b505050565b5b818110156115a057611595600082611569565b600181019050611582565b5050565b601f8211156115e5576115b68161147b565b6115bf84611490565b810160208510156115ce578190505b6115e26115da85611490565b830182611581565b50505b505050565b600082821c905092915050565b6000611608600019846008026115ea565b1980831691505092915050565b600061162183836115f7565b9150826002028217905092915050565b61163a826110a3565b67ffffffffffffffff81111561165357611652610f2f565b5b61165d825461144a565b6116688282856115a4565b600060209050601f83116001811461169b5760008415611689578287015190505b6116938582611615565b8655506116fb565b601f1984166116a98661147b565b60005b828110156116d1578489015182556001820191506020850194506020810190506116ac565b868310156116ee57848901516116ea601f8916826115f7565b8355505b6001600288020188555050505b505050505050565b6000602082019050818103600083015261171d81846110e9565b905092915050565b7f4e6f204b5943207265636f726420666f756e6420666f7220746869732061646460008201527f7265737300000000000000000000000000000000000000000000000000000000602082015250565b60006117816024836110ae565b915061178c82611725565b604082019050919050565b600060208201905081810360008301526117b081611774565b9050919050565b60006020820190506117cc60008301846111a5565b9291505056fea2646970667358221220cd41c34ed6bd28b69a750823751bea07ebf25e25c374b24ad5c57b0cd6b685b864736f6c63430008140033",
  "linkReferences": {},
  "deployedLinkReferences": {}
}