{
  "_format": "hh-sol-artifact-1",
  "contractName": "KYC",
  "sourceName": "contracts/KYC.sol",
  "abi": [
    {
      "inputs": [],
      "stateMutability": "nonpayable",
      "type": "constructor"
    },
    {
      "anonymous": false,
      "inputs": [
        {
          "indexed": true,
          "internalType": "address",
          "name": "user",
          "type": "address"
        },
        {
          "indexed": false,
          "internalType": "bool",
          "name": "consentGiven",
          "type": "bool"
        }
      ],
      "name": "ConsentUpdated",
      "type": "event"
    },
    {
      "anonymous": false,
      "inputs": [
        {
          "indexed": true,
          "internalType": "address",
          "name": "user",
          "type": "address"
        }
      ],
      "name": "KYCApproved",
      "type": "event"
    },
    {
      "anonymous": false,
      "inputs": [
        {
          "indexed": true,
          "internalType": "address",
          "name": "user",
          "type": "address"
        }
      ],
      "name": "KYCRejected",
      "type": "event"
    },
    {
      "anonymous": false,
      "inputs": [
        {
          "indexed": true,
          "internalType": "address",
          "name": "user",
          "type": "address"
        },
        {
          "indexed": false,
          "internalType": "string",
          "name": "documentHash",
          "type": "string"
        }
      ],
      "name": "KYCSubmitted",
      "type": "event"
    },
    {
      "inputs": [],
      "name": "admin",
      "outputs": [
        {
          "internalType": "address",
          "name": "",
          "type": "address"
        }
      ],
      "stateMutability": "view",
      "type": "function"
    },
    {
      "inputs": [
        {
          "internalType": "address",
          "name": "_user",
          "type": "address"
        }
      ],
      "name": "approveKYC",
      "outputs": [],
      "stateMutability": "nonpayable",
      "type": "function"
    },
    {
      "inputs": [
        {
          "internalType": "address",
          "name": "_user",
          "type": "address"
        }
      ],
      "name": "getKYC",
      "outputs": [
        {
          "internalType": "string",
          "name": "documentHash",
          "type": "string"
        },
        {
          "internalType": "enum KYC.KYCStatus",
          "name": "status",
          "type": "uint8"
        },
        {
          "internalType": "bool",
          "name": "consentGiven",
          "type": "bool"
        }
      ],
      "stateMutability": "view",
      "type": "function"
    },
    {
      "inputs": [
        {
          "internalType": "address",
          "name": "",
          "type": "address"
        }
      ],
      "name": "kycRecords",
      "outputs": [
        {
          "internalType": "address",
          "name": "user",
          "type": "address"
        },
        {
          "internalType": "string",
          "name": "documentHash",
          "type": "string"
        },
        {
          "internalType": "enum KYC.KYCStatus",
          "name": "status",
          "type": "uint8"
        },
        {
          "internalType": "bool",
          "name": "consentGiven",
          "type": "bool"
        }
      ],
      "stateMutability": "view",
      "type": "function"
    },
    {
      "inputs": [
        {
          "internalType": "address",
          "name": "_user",
          "type": "address"
        }
      ],
      "name": "rejectKYC",
      "outputs": [],
      "stateMutability": "nonpayable",
      "type": "function"
    },
    {
      "inputs": [
        {
          "internalType": "string",
          "name": "_documentHash",
          "type": "string"
        }
      ],
      "name": "submitKYC",
      "outputs": [],
      "stateMutability": "nonpayable",
      "type": "function"
    },
    {
      "inputs": [
        {
          "internalType": "bool",
          "name": "_consentGiven",
          "type": "bool"
        }
      ],
      "name": "updateConsent",
      "outputs": [],
      "stateMutability": "nonpayable",
      "type": "function"
    }
  ],
  "bytecode": "0x608060405234801561001057600080fd5b50336000806101000a81548173ffffffffffffffffffffffffffffffffffffffff021916908373ffffffffffffffffffffffffffffffffffffffff160217905550611406806100606000396000f3fe608060405234801561001057600080fd5b506004361061007d5760003560e01c80637eb606e81161005b5780637eb606e8146100ec578063c42e58881461011f578063cc90dcd31461013b578063f851a440146101575761007d565b80630e27324d14610082578063453ae3cf1461009e5780634d1a687d146100ba575b600080fd5b61009c60048036038101906100979190610bd3565b610175565b005b6100b860048036038101906100b39190610d46565b610384565b005b6100d460048036038101906100cf9190610bd3565b610511565b6040516100e393929190610ea0565b60405180910390f35b61010660048036038101906101019190610bd3565b6106bf565b6040516101169493929190610eed565b60405180910390f35b61013960048036038101906101349190610bd3565b6107b1565b005b61015560048036038101906101509190610f65565b6109c1565b005b61015f610b3d565b60405161016c9190610f92565b60405180910390f35b60008054906101000a900473ffffffffffffffffffffffffffffffffffffffff1673ffffffffffffffffffffffffffffffffffffffff163373ffffffffffffffffffffffffffffffffffffffff1614610203576040517f08c379a00000000000000000000000000000000000000000000000000000000081526004016101fa9061101f565b60405180910390fd5b600073ffffffffffffffffffffffffffffffffffffffff16600160008373ffffffffffffffffffffffffffffffffffffffff1673ffffffffffffffffffffffffffffffffffffffff16815260200190815260200160002060000160009054906101000a900473ffffffffffffffffffffffffffffffffffffffff1673ffffffffffffffffffffffffffffffffffffffff16036102d4576040517f08c379a00000000000000000000000000000000000000000000000000000000081526004016102cb9061108b565b60405180910390fd5b60018060008373ffffffffffffffffffffffffffffffffffffffff1673ffffffffffffffffffffffffffffffffffffffff16815260200190815260200160002060020160006101000a81548160ff0219169083600281111561033957610338610e0e565b5b02179055508073ffffffffffffffffffffffffffffffffffffffff167f333bb19eeef0621b32888db778cc7a481a89fc1d59adb2cecb59b40ef048941e60405160405180910390a250565b60405180608001604052803373ffffffffffffffffffffffffffffffffffffffff168152602001828152602001600060028111156103c5576103c4610e0e565b5b815260200160001515815250600160003373ffffffffffffffffffffffffffffffffffffffff1673ffffffffffffffffffffffffffffffffffffffff16815260200190815260200160002060008201518160000160006101000a81548173ffffffffffffffffffffffffffffffffffffffff021916908373ffffffffffffffffffffffffffffffffffffffff160217905550602082015181600101908161046c91906112c1565b5060408201518160020160006101000a81548160ff0219169083600281111561049857610497610e0e565b5b021790555060608201518160020160016101000a81548160ff0219169083151502179055509050503373ffffffffffffffffffffffffffffffffffffffff167fe3f81b273b142548431346476607dda7126d68317c9b8a1bbee298bc274dc5b0826040516105069190611393565b60405180910390a250565b60606000806000600160008673ffffffffffffffffffffffffffffffffffffffff1673ffffffffffffffffffffffffffffffffffffffff1681526020019081526020016000206040518060800160405290816000820160009054906101000a900473ffffffffffffffffffffffffffffffffffffffff1673ffffffffffffffffffffffffffffffffffffffff1673ffffffffffffffffffffffffffffffffffffffff1681526020016001820180546105c8906110da565b80601f01602080910402602001604051908101604052809291908181526020018280546105f4906110da565b80156106415780601f1061061657610100808354040283529160200191610641565b820191906000526020600020905b81548152906001019060200180831161062457829003601f168201915b505050505081526020016002820160009054906101000a900460ff16600281111561066f5761066e610e0e565b5b600281111561068157610680610e0e565b5b81526020016002820160019054906101000a900460ff1615151515815250509050806020015181604001518260600151935093509350509193909250565b60016020528060005260406000206000915090508060000160009054906101000a900473ffffffffffffffffffffffffffffffffffffffff1690806001018054610708906110da565b80601f0160208091040260200160405190810160405280929190818152602001828054610734906110da565b80156107815780601f1061075657610100808354040283529160200191610781565b820191906000526020600020905b81548152906001019060200180831161076457829003601f168201915b5050505050908060020160009054906101000a900460ff16908060020160019054906101000a900460ff16905084565b60008054906101000a900473ffffffffffffffffffffffffffffffffffffffff1673ffffffffffffffffffffffffffffffffffffffff163373ffffffffffffffffffffffffffffffffffffffff161461083f576040517f08c379a00000000000000000000000000000000000000000000000000000000081526004016108369061101f565b60405180910390fd5b600073ffffffffffffffffffffffffffffffffffffffff16600160008373ffffffffffffffffffffffffffffffffffffffff1673ffffffffffffffffffffffffffffffffffffffff16815260200190815260200160002060000160009054906101000a900473ffffffffffffffffffffffffffffffffffffffff1673ffffffffffffffffffffffffffffffffffffffff1603610910576040517f08c379a00000000000000000000000000000000000000000000000000000000081526004016109079061108b565b60405180910390fd5b6002600160008373ffffffffffffffffffffffffffffffffffffffff1673ffffffffffffffffffffffffffffffffffffffff16815260200190815260200160002060020160006101000a81548160ff0219169083600281111561097657610975610e0e565b5b02179055508073ffffffffffffffffffffffffffffffffffffffff167fa34e10975b6442017fb6ca6ba35e6d671924c59f52737e20ef2362a5ca2c275160405160405180910390a250565b600073ffffffffffffffffffffffffffffffffffffffff16600160003373ffffffffffffffffffffffffffffffffffffffff1673ffffffffffffffffffffffffffffffffffffffff16815260200190815260200160002060000160009054906101000a900473ffffffffffffffffffffffffffffffffffffffff1673ffffffffffffffffffffffffffffffffffffffff1603610a92576040517f08c379a0000000000000000000000000000000000000000000000000000000008152600401610a899061108b565b60405180910390fd5b80600160003373ffffffffffffffffffffffffffffffffffffffff1673ffffffffffffffffffffffffffffffffffffffff16815260200190815260200160002060020160016101000a81548160ff0219169083151502179055503373ffffffffffffffffffffffffffffffffffffffff167f7bdbd5ff3d003672492455cc5133da0a6ac7f911054f30d5f423443f90418c7182604051610b3291906113b5565b60405180910390a250565b60008054906101000a900473ffffffffffffffffffffffffffffffffffffffff1681565b6000604051905090565b600080fd5b600080fd5b600073ffffffffffffffffffffffffffffffffffffffff82169050919050565b6000610ba082610b75565b9050919050565b610bb081610b95565b8114610bbb57600080fd5b50565b600081359050610bcd81610ba7565b92915050565b600060208284031215610be957610be8610b6b565b5b6000610bf784828501610bbe565b91505092915050565b600080fd5b600080fd5b6000601f19601f8301169050919050565b7f4e487b7100000000000000000000000000000000000000000000000000000000600052604160045260246000fd5b610c5382610c0a565b810181811067ffffffffffffffff82111715610c7257610c71610c1b565b5b80604052505050565b6000610c85610b61565b9050610c918282610c4a565b919050565b600067ffffffffffffffff821115610cb157610cb0610c1b565b5b610cba82610c0a565b9050602081019050919050565b82818337600083830152505050565b6000610ce9610ce484610c96565b610c7b565b905082815260208101848484011115610d0557610d04610c05565b5b610d10848285610cc7565b509392505050565b600082601f830112610d2d57610d2c610c00565b5b8135610d3d848260208601610cd6565b91505092915050565b600060208284031215610d5c57610d5b610b6b565b5b600082013567ffffffffffffffff811115610d7a57610d79610b70565b5b610d8684828501610d18565b91505092915050565b600081519050919050565b600082825260208201905092915050565b60005b83811015610dc9578082015181840152602081019050610dae565b60008484015250505050565b6000610de082610d8f565b610dea8185610d9a565b9350610dfa818560208601610dab565b610e0381610c0a565b840191505092915050565b7f4e487b7100000000000000000000000000000000000000000000000000000000600052602160045260246000fd5b60038110610e4e57610e4d610e0e565b5b50565b6000819050610e5f82610e3d565b919050565b6000610e6f82610e51565b9050919050565b610e7f81610e64565b82525050565b60008115159050919050565b610e9a81610e85565b82525050565b60006060820190508181036000830152610eba8186610dd5565b9050610ec96020830185610e76565b610ed66040830184610e91565b949350505050565b610ee781610b95565b82525050565b6000608082019050610f026000830187610ede565b8181036020830152610f148186610dd5565b9050610f236040830185610e76565b610f306060830184610e91565b95945050505050565b610f4281610e85565b8114610f4d57600080fd5b50565b600081359050610f5f81610f39565b92915050565b600060208284031215610f7b57610f7a610b6b565b5b6000610f8984828501610f50565b91505092915050565b6000602082019050610fa76000830184610ede565b92915050565b7f4f6e6c792061646d696e2063616e20706572666f726d2074686973206163746960008201527f6f6e000000000000000000000000000000000000000000000000000000000000602082015250565b6000611009602283610d9a565b915061101482610fad565b604082019050919050565b6000602082019050818103600083015261103881610ffc565b9050919050565b7f4b5943207265636f7264206e6f7420666f756e64000000000000000000000000600082015250565b6000611075601483610d9a565b91506110808261103f565b602082019050919050565b600060208201905081810360008301526110a481611068565b9050919050565b7f4e487b7100000000000000000000000000000000000000000000000000000000600052602260045260246000fd5b600060028204905060018216806110f257607f821691505b602082108103611105576111046110ab565b5b50919050565b60008190508160005260206000209050919050565b60006020601f8301049050919050565b600082821b905092915050565b60006008830261116d7fffffffffffffffffffffffffffffffffffffffffffffffffffffffffffffffff82611130565b6111778683611130565b95508019841693508086168417925050509392505050565b6000819050919050565b6000819050919050565b60006111be6111b96111b48461118f565b611199565b61118f565b9050919050565b6000819050919050565b6111d8836111a3565b6111ec6111e4826111c5565b84845461113d565b825550505050565b600090565b6112016111f4565b61120c8184846111cf565b505050565b5b81811015611230576112256000826111f9565b600181019050611212565b5050565b601f821115611275576112468161110b565b61124f84611120565b8101602085101561125e578190505b61127261126a85611120565b830182611211565b50505b505050565b600082821c905092915050565b60006112986000198460080261127a565b1980831691505092915050565b60006112b18383611287565b9150826002028217905092915050565b6112ca82610d8f565b67ffffffffffffffff8111156112e3576112e2610c1b565b5b6112ed82546110da565b6112f8828285611234565b600060209050601f83116001811461132b5760008415611319578287015190505b61132385826112a5565b86555061138b565b601f1984166113398661110b565b60005b828110156113615784890151825560018201915060208501945060208101905061133c565b8683101561137e578489015161137a601f891682611287565b8355505b6001600288020188555050505b505050505050565b600060208201905081810360008301526113ad8184610dd5565b905092915050565b60006020820190506113ca6000830184610e91565b9291505056fea2646970667358221220b1874d3d97a18faea4678ca0ed550e474f54d4bfe203eaf7c8c6d3a7fc06387464736f6c63430008140033",
  "linkReferences": {},
  "deployedLinkReferences": {}
}